:100000000204F054656D702864656743293D202023
:10001000202020004D6F6973744C766C3D202020A9
:10002000202020200020476F6F64202000204C4FAC
:0C00300057212121000D0A002E000900BC
:10003C00C000788500D8FDD00022C000C00179280E
:10004C007868D8FED9FADAF6D001D00022D2941210
:10005C00003CC29422A2E79283A2E69282A2E5928D
:10006C0081A2E4928012005912003CA2E39283A276
:10007C00E29282A2E19281A2E0928012005922D2F5
:10008C0093020061C293020061C294C0027A2812EA
:10009C000046D00274331200907433120090743204
:1000AC001200907428120090740C120090740112BB
:1000BC000090C0027A02120046D00222E49360063D
:1000CC0012008BA380F62244404480020090C0E0D2
:1000DC00E8C4540F443012008BE8540F4430120023
:1000EC008BD0E022C0E07407141200D3D0E0C00023
:1000FC00A83C1200DAD000C000A83B1200DAD000F5
:10010C00C000A83A1200DAD000C000A8391200DAF8
:0B011C00D000C000A8381200DAD000AC
:10012700C0E0C0D0C000C001C002E4F538F539F521
:100137003AF53BF53C7A20E533A2E779047830E6D7
:1001470033F608D9FA79057838E636D4F608D9F9B6
:10015700DAE5D002D001D000D0D0D0E022C0E0C094
:10016700D0C000C001C002E4F538F539F53AF53BD7
:10017700F53C7A20E533A2E779047830E633F608D0
:10018700D9FA79057838C0D0E6243320E70224D09D
:1001970020E30224FDD0D033F608D9EADAD6D0021C
:1001A700D001D000D0D0D0E022C0E0C0D0C000C085
:1001B70001C0027A207905C3783CE613C0D030E746
:1001C7000224D030E30224FDF618D0D0D9EC79040C
:1001D7007833E613F618D9FADADBD002D001D0006B
:1001E700D0D0D0E022C0E0C0D0E5302534F530E5EE
:1001F700313535F531E5323536F532E5333537F515
:1002070033D0D0D0E022C0E0C0D0C3E5309534F57C
:1002170030E5319535F531E5329536F532E53395EB
:1002270037F533D0D0D0E022C0E0C0D0C3E5309559
:1002370034E5319535E5329536E53395379201D07A
:10024700D0D0E022C0E0C0D0C3E5349530E5359585
:1002570031E5369532E53795339201D0D0D0E0229B
:10026700C0E0C0D0C201C3E53495307014E53595C0
:1002770031700EE53695327008E53795337002D246
:1002870001D0D0D0E02212026720010302024B22E4
:1002970012026720010302022F22C0E0C0F0C0D083
:1002A700C000C001C002C003E5308534F0A4F8A93E
:1002B700F0E5318534F0A429F9E435F0FAE5308525
:1002C70035F0A429F9E5F03AFAE433FBE532853451
:1002D700F0A42AFAE5F03BFBE5318535F0A42AFACC
:1002E700E5F03BFBE5308536F0A42AFAE5F03BFB69
:1002F700E5338534F0A42BFBE5328535F0A42BFBE1
:10030700E5318536F0A42BFBE5308537F0A42BFBD0
:100317008B338A3289318830D003D002D001D000A4
:10032700D0D0D0F0D0E022C0E0C0D0C000C001C023
:1003370002C003C0047C20E4F8F9FAFBC3E53033BC
:10034700F530E53133F531E53233F532E53333F561
:1003570033E833F8E933F9EA33FAEB33FBC3E895CB
:1003670034E99535EA9536EB95374013E89534F837
:10037700E99535F9EA9536FAEB9537FB433001DC19
:10038700BBD004D003D002D001D000D0D0D0E0221F
:1003970075AC0075AD0075B30075B40075B1007527
:1003A700B20079C87868D8FED9FA438E104387809F
:1003B70075985253C4DF53890F438920758DF7D23F
:1003C7008EC28C438E085389F043890143B382530D
:1003D700B47D53E8F043E80775F60043F6A143E11F
:1003E70001223099FDC299F59922E4936006120320
:1003F700E9A380F622C0E0E8C4540F44301203E9B1
:10040700E8540F44301203E9D0E022C28CC28D7544
:100417008CBF758A28D28C308DFD22120412DAFB2C
:1004270022C0E0740C141200D5D0E0C000A83A1224
:1004370000DAD000C0E0742E12008BD0E0C000A814
:10044700391200DAD000C000A8381200DAD0002232
:10045700C2EFD2EE30EFFDE5C2540FF8E5C3C4C0DA
:10046700E0540FF9D0E054F048F82253E8F043E89D
:1004770000120457883D893E53E8F043E807120409
:1004870057883089317532007533007534FF7535FB
:100497009F7536007537001202A1853D34853E35BC
:1004A70075360075370012032E7534A475356A75D5
:1004B700360075370012020D7534647535007536D0
:1004C700007537001202A12253E8F043E800120436
:1004D70057883D893E53E8F043E8051204578830B2
:1004E70089317532007533002275817F12039712A7
:1004F7000095C295C0E07401141200D5D0E0C08306
:10050700C082C0E09000031200C8D0E0D082D08340
:10051700C0E07401141200D3D0E0C083C082C0E0F1
:100527009000141200C8D0E0D082D0831204721257
:100537000127120428C000A83A1203FCD00090003B
:10054700381203F1C000A8391203FCD0009000351F
:100557001203F17A0A1204221204CF12012775340A
:10056700D0753507753600753700120297200120C0
:10057700C0E0740A141200D3D0E0C083C082C0E088
:100587009000251200C8D0E0D082D083C295801E8B
:10059700D295C0E0740A141200D3D0E0C083C082A1
:1005A700C0E090002D1200C8D0E0D082D0837AFA44
:1005B7001204227AFA1204227AFA1204227AFA121E
:0505C7000422020533CF
:00000001FF
